:020000040800F2
:104000004805002001410008E1420008DD420008A7
:10401000DF420008E9410008AD4900080000000047
:10402000000000000000000000000000A54400089F
:10403000EB41000800000000194400083D4500085D
:104040001B4100081B4100081B4100081B410008E0
:104050001B4100081B4100081B4100081B410008D0
:104060001B4100081B4100081B4100081B410008C0
:104070001B4100081B4100081B4100081B410008B0
:104080001B4100081B4100081B410008454900086E
:10409000474900081B4100081B4100081B4100085C
:1040A0001B4100081B4100081B4100081B41000880
:1040B0001B4100081B4100081B4100081B41000870
:1040C0001B4100081B4100081B4100081B41000860
:1040D0001B410008914500089545000899450008D6
:1040E0001B4100081B4100081B410008DFF80CD0F1
:1040F00000F068F800480047AD4E00084805002071
:104100000648804706480047FEE7FEE7FEE7FEE771
:10411000FEE7FEE7FEE7FEE7FEE7FEE741450008B3
:10412000ED4000082DE9F05F0546002092469B46D1
:1041300088460646814640241BE0284641464746BD
:10414000224600F02FF852465B46801A994110D360
:1041500010461946224600F016F82D1A67EB0108A2
:104160004F4622460120002100F00DF817EB000910
:104170004E41201EA4F10104DFDC484631462A46A8
:104180004346BDE8F09F202A04DB203A00FA02F102
:10419000002070479140C2F1200320FA03F3194335
:1041A00090407047202A04DB203A21FA02F00021D7
:1041B000704721FA02F3D040C2F120029140084337
:1041C00019467047064C074D06E0E06840F00103D1
:1041D00094E8070098471034AC42F6D3FFF78AFF03
:1041E000D44E0008F44E0008FEE7704710B50022D8
:1041F000022901D2002010BD401C891E8BB2002173
:1042000004E0445C491C224492B289B29942F8D33A
:10421000D043401CC0B210BD0178FF290CD14178B9
:104220000C4A172909D0862906D102211171C178BB
:10423000807801EB0020508270474179007901EBD2
:10424000002050810120107100221146024800F028
:104250002EBE0000100000209000002070B51C4C05
:1042600040F22551204600F0E9F9002826D02046EA
:1042700000F0F2FA174CC0B2E1790025164EFF2982
:1042800003D117281BD0862819D0218A402900D3B2
:104290002582218A7054E071208A401C2082208A65
:1042A00009280BD109210C48FFF7A0FF317A884279
:1042B00003D109210848FFF7AFFF258270BD258291
:1042C000228AFF21B154218A491C2182E1E70000A2
:1042D000004800401000002008010020FEE7FEE733
:1042E000704700000148406870470000000000204F
:1042F0000A4B19680A4608E0814205D1087A40F065
:10430000010008720020704749680029F4D142601A
:104310001860017A41F001010172F3E70800002002
:10432000F0B502780023422A02D042784D2A30D1DB
:10433000184F7A7812B17A78521E7A70C2788478DF
:10434000DFF854C002EB0422ACF802200CF10406A2
:10435000002200EB42046579247905EB042426F859
:104360001240521CD2B20E2AF3D3891C8AB2002109
:1043700004E0445C491C23449BB2C9B29142F8D387
:10438000BCF81E00984201D1012038707878401C9A
:104390007870F0BD100000204C00002070B51B4C60
:1043A00040F22551204600F049F9002825D020464A
:1043B00000F052FA164CC0B2A27900251549422AE3
:1043C00001D14D281AD0E289402A00D3E581E28943
:1043D0008854E289521CE281A071E08903280CD93B
:1043E000C8788978E28900EB012081B2081D9042EB
:1043F00003D10848FFF794FFE58170BDE581E389AB
:104400004222CA54E289521CE281E0E700380140AE
:1044100010000020C80000207047000070B51F4C3D
:1044200040F225552946204600F008F9F8B120460B
:1044300000F012FA1A4AC3B29088D188401C00F0EA
:104440003F0088420BD1A2F10C00418809B901213B
:10445000418000222946204600F07AF907E01068E2
:10446000918843549088401C00F03F00908040F2B7
:1044700027752946204600F0E1F800280CD000F00E
:1044800063FA00F077FA012806D129462046BDE8F4
:104490007040012200F05CB970BD00000044004093
:1044A0004000002070470000224900200A6842F4C2
:1044B00080320A604FF4A0630A6800F1010012F430
:1044C000003F01D19842F7D10868800330D51A48DF
:1044D000026842F010020260026822F003020260E9
:1044E000026842F00202026048684860486848601A
:1044F000486840F480604860486820F47C10486058
:10450000486840F4E8104860086840F0807008602F
:1045100008688001FCD5486820F0030048604868BE
:1045200040F0020048604868C0F381000228FAD1D8
:104530007047000000100240002002407047000059
:104540000F4810B5016841F00101016041680D4A52
:104550001140416001680C4A11400160016821F47A
:1045600080210160416821F4FE0141604FF41F0188
:104570008160FFF799FF05494FF00060086010BDAA
:10458000001002400000FFF8FFFFF6FE08ED00E01B
:10459000FFF704BFFFF742BFFFF760BE2DE9F04110
:1045A000184E194FDFF8648004460D46B0420ED015
:1045B000BC420CD044450AD01548844207D0154867
:1045C000844204D040F29E3113A000F04DFC35F43B
:1045D000587000D125B940F29F310FA000F044FC83
:1045E000A8050AD5B44208D0BC4206D0444504D040
:1045F00040F2A33108A000F037FCE8432080BDE87A
:10460000F0810000003801400044004000480040B4
:10461000004C0040005000402E2E5C4C69627261DC
:1046200072795C7372635C73746D333266313078A7
:104630005F75736172742E63000000002DE9F0470E
:10464000354F0026DFF8D480DFF8D4A005460C46AD
:10465000B8420ED045450CD055450AD03148854268
:1046600007D03148854204D040F2C1312FA000F07C
:10467000FBFB282C32D0A4F5E06040F66A192738FD
:104680001FD0A4F5C06026381BD0A4F5A060253843
:1046900017D0A4F58060243813D0A4F50060463804
:1046A0000FD04C450DD0B4F5587F17D0B4F5187F16
:1046B00014D0B4F5B07F11D040F2C2311BA000F08D
:1046C000D3FB4C450AD1BD4208D0454506D05545DF
:1046D00004D040F2C63115A000F0C6FB04F01F0262
:1046E0000123C4F3421103FA02F0012910D0022978
:1046F00010D0A98A2A8801424FEA142003FA00F355
:1047000002EA030201D002B101263046BDE8F0877B
:10471000A989EFE7298AEDE700380140004400400D
:1047200000480040004C0040005000402E2E5C4CE1
:104730006962726172795C7372635C73746D333237
:10474000663130785F75736172742E63000000000B
:104750002DE9F047324FDFF8CC90DFF8CCA00546CA
:104760000C461646B8420ED04D450CD055450AD0E1
:104770002E48854207D02E48854204D040F2891148
:104780002CA000F071FB40F66A18282C1CD0A4F570
:10479000E060273818D0A4F5C060263814D0A4F5FE
:1047A000A060253810D0A4F5806024380CD0A4F582
:1047B0000060463808D0444506D0602C04D04FF441
:1047C000C5711CA000F050FB36B1012E04D040F2A0
:1047D0008B1118A000F048FB44450AD1BD4208D017
:1047E0004D4506D0554504D040F28F1111A000F080
:1047F0003BFB04F01F020120C4F342119040012949
:1048000006D0022906D0143529682EB1014304E0F0
:104810000C35F9E71035F7E781432960BDE8F087EB
:10482000003801400044004000480040004C004077
:10483000005000402E2E5C4C6962726172795C738C
:1048400072635C73746D3332663130785F75736197
:1048500072742E630000000010B504460B488442B9
:1048600010D00B4884420DD00A4884420AD00A482E
:10487000844207D00948844204D04FF4197108A03B
:1048800000F0F2FAA088C0F3080010BD0038014023
:104890000044004000480040004C004000500040F0
:1048A0002E2E5C4C6962726172795C7372635C7308
:1048B000746D3332663130785F75736172742E6354
:1048C0000000000070B5044610480D46844210D028
:1048D0000F4884420DD00F4884420AD00E488442CB
:1048E00007D00E48844204D040F253210CA000F0BF
:1048F000BBFAB5F5007F04D34FF4157108A000F0A2
:10490000B3FAC5F30800A08070BD00000038014074
:104910000044004000480040004C0040005000406F
:104920002E2E5C4C6962726172795C7372635C7387
:10493000746D3332663130785F75736172742E63D3
:10494000000000007047704710B5094C002240F28B
:1049500027712046FFF7FCFE002240F22661204628
:10496000FFF7F6FE2046BDE810404021FFF716BED7
:10497000004400400B488288C388011F9A4202D13C
:1049800000200870704701220A700168C288895CA3
:10499000054A1180C188491CC1F30801C18001206A
:1049A000704700003800002004440040FEE700008B
:1049B0000FB4054B10B503A9044A029800F018F88B
:1049C00010BC5DF814FB0000914E00084800002068
:1049D00002E008C8121F08C1002AFAD170477047C8
:1049E000002001E001C1121F002AFBD17047000026
:1049F0002DE9FF4F8DB005460F460026E9E1252839
:104A000079D100246D1CF74AA246A14601212B78DA
:104A1000203B01FA03F0104202D004436D1CF6E77C
:104A200028782A2810D06FF02F022878A0F13001C2
:104A3000092915D80AEB8A0102EB410144F002046E
:104A400000EB010A6D1CF0E757F804ABBAF1000F58
:104A500003DA44F40054CAF1000A44F002046D1C65
:104A600028782E2817D115F8010F44F004042A28BD
:104A70000ED06FF02F022878A0F1300109290AD852
:104A800009EB890102EB410100EB01096D1CF2E722
:104A900057F8049B6D1C28786C280FD006DC4C2836
:104AA00017D068280DD06A2814D104E0742810D0DB
:104AB0007A280FD10DE044F400140AE044F4801485
:104AC00001E044F440146978814202D16D1C04F580
:104AD00080146D1C95F800C0BCF16E0F2AD012DC5A
:104AE000BCF1630F3CD007DCBCF1000F76D0BCF109
:104AF000580F19D1A7E018E0BCF1640F6FD0BCF1DA
:104B0000690F11D16BE0BCF1730F32D006DCBCF140
:104B10006F0F71D0BCF1700F06D196E0BCF1750F2C
:104B20006BD0BCF1780F69D06046DDE90F12904779
:104B3000761C4DE1C4F30250022806D003280AD0A7
:104B4000042801CF0AD0066042E101CF4FEAE671A6
:104B5000C0E900613CE101CF068039E1067037E130
:104B600001CF8DF8000000208DF80100EB460120F8
:104B700003E057F804BB4FF0FF3061074FF000012E
:104B800002D40DE008F10101884649450FDA80455D
:104B9000F8DB1BF808100029F4D108E008F1010146
:104BA00088468142FADB1BF808100029F6D1DDE9BE
:104BB0000F23AAEB08008146214600F03CF930445F
:104BC00000EB080604E0DDE90F121BF8010B90472B
:104BD000B8F10108F7D221464846F4E0FDE00A2189
:104BE000C4F302524FF0000B0891022A07D001CF04
:104BF000C117032A09D00AE030E022E023E0FF1DBC
:104C000027F00707F7E8020105E000B2C117042A00
:104C100001D140B2C117002906DA0023D0EB03000E
:104C200063EB01012D2202E0220504D52B228DF831
:104C30002420012203E0E20701D02022F7E790467A
:104C40004EE00A210BE0102109E010214FF0000B8B
:104C500044F004044FF00809089103E008214FF0E4
:104C6000000B0891C4F30252022A04D001CF0021A4
:104C7000032A06D007E0FF1D27F00707F7E8020127
:104C800005E080B20021042A01D1C0B200214FF01A
:104C90000008220724D5BCF1700F29D0089B83F0AF
:104CA000100353EA0B0309D150EA010206D0302267
:104CB0008DF824208DF825C002229046089B83F0B1
:104CC000080353EA0B030BD150EA010201D162073A
:104CD00006D530228DF824204FF00108A9F10109F2
:104CE000BCF1580F09D040A20B9208AA0A9211E019
:104CF00040228DF824200122DFE740A2F4E75B4642
:104D0000089AFFF70FFA0B9B9B5C0A9AA2F101022B
:104D10000A92137050EA0102F1D10A98ADEB00003B
:104D200000F1200B600702D524F4803401E04FF03D
:104D30000109D94502DDA9EB0B0000E0002000EBE2
:104D40000B0141440890AAEB01000B90E00306D44C
:104D5000DDE90F2321460B9800F06DF806444FF073
:104D600000090DF1240A07E0DDE90F121AF8090025
:104D70009047761C09F10109C145F5DBE0030CD52C
:104D8000DDE90F2321460B9800F055F8064404E0B6
:104D9000DDE90F1230209047761C0899481E0890D4
:104DA0000029F5DC08E00A980A990078491C0A9164
:104DB000DDE90F129047761CBBF10001ABF1010B4E
:104DC000F1DC0B982146DDE90F2300F021F80644C1
:104DD0006D1C287800287FF412AE11B03046BDE873
:104DE000F08F000009280100303132333435363776
:104DF0003839616263646566000000003031323327
:104E000034353637383941424344454600000000C6
:104E10002DE9F0410446002517461E46880405D4B6
:104E200006E039462020B04705F10105641EF8D59B
:104E30002846BDE8F0812DE9F04104460025904662
:104E40001E46C80301D5302700E02027880405D579
:104E500006E041463846B04705F10105641EF8D525
:104E60002846BDE8F08100000A46014601A0FFF790
:104E70009FFDFEE7617373657274206661696C65FE
:104E8000642061742025733A2564200D0A00000017
:104E900070B5054C0546C1B22046FFF713FD2088CA
:104EA0000006FCD5284670BD00440040FEE770B502
:104EB00004460D461646C160FFF714FA28442061E7
:104EC0001EB1207A40F0020020722046BDE87040FA
:104ED000FFF70EBAF44E0008000000204C0000005E
:104EE000D0490008404F00084C000020FC0400009E
:104EF000E049000800000000000000000000000081
:104F0000000000000001000100000000010100009D
:104F1000000000000000000000000000FF017841D8
:104F2000000000004600000000000000000000003B
:104F30000000000000000000000000000000000071
:04000005080040EDC2
:00000001FF
